:1000000012C02CC02BC02AC0CEC228C096C1FBC1D2
:1000100025C05CC123C022C021C020C01FC01EC09B
:100020001DC01CC01BC011241FBECFE5D4E0DEBF25
:10003000CDBF10E0A0E6B0E0EEEBF5E002C0059029
:100040000D92A637B107D9F720E0A6E7B0E001C0CE
:100050001D92A438B207E1F7D7D0AFC2D1CFFB01D0
:10006000138299E2899F912D112492959F7020E32C
:10007000290F208324E6929F801911249DEC899FEB
:10008000912D112496959695969520E3290F21831D
:10009000990F292F220F220F920F891B805D8283D7
:1000A0000895DC018C91882331F1FD0140E092B389
:1000B000937092BB929A939A22B39081907F922BE5
:1000C00092BB9398939A92B39F7092BB82B39081A4
:1000D00050E1959F90011124282B22BB939889E928
:1000E00093E00197F1F700C04F5FFD01E40FF11DB0
:1000F00080818111DCCF089592B3937092BB939A63
:1001000092B3282F207F922B92BB9398939A92B30D
:100110009F7092BB22B330E1839FC0011124822BD8
:1001200082BB939889E993E00197F1F700C00895A5
:10013000882321F0813021F480EC03C080E801C0E5
:1001400080E0603108F4862BD7DF08958FEF95E3C8
:100150000197F1F700C0000082B3837082BB939ACD
:1001600082B3806382BB93988FEF91E10197F1F79F
:1001700000C00000939A82B3806382BB939883E3AC
:1001800097E00197F1F7939A82B3806382BB9398CB
:1001900089E993E00197F1F700C082B3837082BBD5
:1001A000939A959A939889E993E00197F1F700C0A3
:1001B00088E2A2DF88E0A0DF81E09EDF86E09CDFAE
:1001C0008FE09ADF83E397E00197F1F7089582E0EB
:1001D00083BF1FBC88E08EBD8EB583608EBD88E373
:1001E00090E09BBD8ABD99BD88BD8AE685BD89B773
:1001F000896589BF7894089587B1806687B986B18B
:10020000866A86B9369A0895CF93DF93CDB7DEB765
:1002100061970FB6F894DEBF0FBECDBF81B38C6F70
:1002200081BBBC9AA098AA9AD2DF90DFE5DF8091CB
:10023000820081FF07C060E080E07ADF82E690E024
:1002400030DF06C060E080E073DF86E690E029DF03
:100250008091820084FF07C064E080E069DF8AE665
:1002600090E01FDF06C064E080E062DF80E790E09E
:1002700018DF85B1BE016F5F7F4FF1DE60E081E086
:1002800057DFCE0101960DDF80916100BE016F5FE7
:100290007F4FE5DE64E081E04BDFCE01019601DFB8
:1002A00080916000BE016F5F7F4FD9DE68E081E022
:1002B0003FDFCE010196F5DE2FEF8FE191E0215077
:1002C00080409040E1F700C00000B1CF1F920F9234
:1002D0000FB60F9211248F9380918000811115C069
:1002E00085B1863518F085B1893A48F081E0809370
:1002F0008000809182008F7E8093820018C0809160
:1003000081008B7F8093810012C085B1863578F0A3
:1003100085B1893A60F410928000809182008061FA
:1003200080938200809181008460809381008F910E
:100330000F900FBE0F901F9018951F920F920FB63F
:100340000F9211248F939F9380916000823079F1F6
:1003500018F4813031F050C0833049F0843069F1B5
:100360004BC09A9949C083E08093600045C080915A
:100370007E0090917F008333910598F09A9909C08F
:100380008091830082608093830082E0809360008C
:1003900003C081E08093600010927F0010927E0085
:1003A0002BC0019690937F0080937E0025C09A9B7E
:1003B00023C084E0809360001FC080917E009091F4
:1003C0007F008333910598F09A9B09C08091830048
:1003D0008D7F8093830081E08093600003C082E082
:1003E0008093600010927F0010927E0005C00196FD
:1003F00090937F0080937E009F918F910F900FBE0E
:100400000F901F9018951F920F920FB60F92112404
:100410002F933F934F938F939F93809161008230EE
:10042000A1F0833009F471C0813009F0B2C080912D
:10043000830081FFAEC082E080936100C49A809106
:100440008200826080938200A4C080917C009091A1
:100450007D00863B23E09207C0F42091830021FFBA
:1004600014C020917A0030917B002F5F3F4F309372
:100470007B0020937A00263B334038F021E0209324
:1004800079008530910520F02AC08530910518F556
:100490002091770030917800253F41E03407A0F0AB
:1004A000019690937D0080937C00109278001092CA
:1004B000770098B380E1892788BB9091820082E021
:1004C00089278093820065C02F5F3F4F309378006B
:1004D000209377005EC080917900882331F083E01B
:1004E000809361001092790003C081E080936100E5
:1004F00010927B0010927A0010927D0010927C0086
:10050000109278001092770044C08091770090910B
:100510007800853F21E0920778F098B380E1892741
:1005200088BB9091820082E089278093820010929C
:1005300078001092770005C0019690937800809320
:1005400077008091830081FD04C08091810082FF4B
:1005500004C081E08093760004C0809176008823F7
:10056000C1F08091830081FD14C0809181008B7F58
:1005700080938100109278001092770081E0809340
:10058000610010927600C498809182008D7F8093E4
:1005900082009F918F914F913F912F910F900FBEAD
:1005A0000F901F9018951F920F920FB60F92112463
:0E05B0000F900FBE0F901F901895F894FFCF7C
:1005BE0001014F4E20004F46460054525545200033
:0605CE0046414C534500BC
:00000001FF
