S0160000656D6265646465645F6C61626F722E7372656375
S113000012C02CC02BC02AC0E4C228C09CC2BEC2ED
S113001025C062C223C022C021C020C01FC01EC090
S11300201DC01CC01BC011241FBECFE5D4E0DEBF21
S1130030CDBF10E0A0E6B0E0EAEEF5E002C0059026
S11300400D92A637B107D9F720E0A6E7B0E001C0CA
S11300501D92A438B207E1F7D7D0C5C2D1CFFB01B6
S1130060138299E2899F912D112492959F7020E328
S1130070290F208324E6929F801911249DEC899FE7
S1130080912D112496959695969520E3290F218319
S1130090990F292F220F220F920F891B805D8283D3
S11300A00895DC018C91882331F1FD0140E092B385
S11300B0937092BB929A939A22B39081907F922BE1
S11300C092BB9398939A92B39F7092BB82B39081A0
S11300D050E1959F90011124282B22BB939889E924
S11300E093E00197F1F700C04F5FFD01E40FF11DAC
S11300F080818111DCCF089592B3937092BB939A5F
S113010092B3282F207F922B92BB9398939A92B309
S11301109F7092BB22B330E1839FC0011124822BD4
S113012082BB939889E993E00197F1F700C00895A1
S1130130882321F0813021F480EC03C080E801C0E1
S113014080E0603108F4862BD7DF08958FEF95E3C4
S11301500197F1F700C0000082B3837082BB939AC9
S113016082B3806382BB93988FEF91E10197F1F79B
S113017000C00000939A82B3806382BB939883E3A8
S113018097E00197F1F7939A82B3806382BB9398C7
S113019089E993E00197F1F700C082B3837082BBD1
S11301A0939A959A939889E993E00197F1F700C09F
S11301B088E2A2DF88E0A0DF81E09EDF86E09CDFAA
S11301C08FE09ADF83E397E00197F1F7089582E0E7
S11301D083BF1FBC88E08EBD8EB583608EBD88E36F
S11301E090E09BBD8ABD99BD88BD8AE685BD89B76F
S11301F0896589BF7894089587B1806687B986B187
S1130200866A86B9369A0895CF93DF93CDB7DEB761
S113021061970FB6F894DEBF0FBECDBF81B38C6F6C
S113022081BBBC9AA098AA9AD2DF90DFE5DF8091C7
S1130230820081FF07C060E080E07ADF82E690E020
S113024030DF06C060E080E073DF86E690E029DFFF
S11302508091820084FF07C064E080E069DF8AE661
S113026090E01FDF06C064E080E062DF80E790E09A
S113027018DF85B1BE016F5F7F4FF1DE60E081E082
S113028057DFCE0101960DDF2FEF8FE191E0215072
S113029080409040E1F700C00000C9CF8091610028
S11302A08230A1F0833009F471C0813009F0B3C009
S11302B08091830081FFB2C082E080936100C49A80
S11302C080918200826080938200089580917F00F3
S11302D090918000863B23E09207C0F42091830034
S11302E021FF14C020917D0030917E002F5F3F4F8D
S11302F030937E0020937D00263B334038F021E08C
S113030020937C008530910520F02AC0853091052A
S113031018F520917A0030917B00253F41E03407A5
S1130320A0F001969093800080937F0010927B0050
S113033010927A0098B380E1892788BB909182005B
S113034082E089278093820008952F5F3F4F309386
S11303507B0020937A00089580917C00882331F0FB
S113036083E08093610010927C0003C081E080935D
S1130370610010927E0010927D0010928000109215
S11303807F0010927B0010927A00089580917A0089
S113039090917B00853F21E0920778F098B380E14B
S11303A0892788BB9091820082E08927809382000C
S11303B010927B0010927A0005C0019690937B0006
S11303C080937A008091830081FD04C08091810034
S11303D082FF04C081E08093790004C08091790099
S11303E08823E1F08091830081FD18C08091810011
S11303F08B7F8093810010927B0010927A0081E0C1
S11304008093610010927900C498809182008D7F5E
S113041080938200089581E0809361000895809123
S11304206000823079F118F4813031F051C08330AA
S113043049F0843069F14CC09A994DC083E08093AF
S1130440600008958091770090917800833391053E
S113045098F09A9909C08091830082608093830008
S113046082E08093600003C081E08093600010927A
S11304707800109277000895019690937800809305
S1130480770008959A9B27C084E0809360000895C4
S113049080917700909178008333910598F09A9B2E
S11304A009C0809183008D7F8093830081E08093D5
S11304B0600003C082E08093600010927800109284
S11304C077000895019690937800809377000895BB
S11304D081E08093600008951F920F920FB60F92EF
S11304E011248F9380917600811115C085B18635D2
S11304F018F085B1893A48F081E0809376008091C4
S113050082008F7E8093820018C0809181008B7F4F
S11305108093810012C085B1863578F085B1893A1F
S113052060F4109276008091820080618093820052
S1130530809181008460809381008F910F900FBE21
S11305400F901F9018951F920F920FB60F921124BF
S11305502F933F934F935F936F937F938F939F93C7
S1130560AF93BF93EF93FF935ADFFF91EF91BF9146
S1130570AF919F918F917F916F915F914F913F9137
S11305802F910F900FBE0F901F9018951F920F92EE
S11305900FB60F9211242F933F934F935F936F9352
S11305A07F938F939F93AF93BF93EF93FF9376DEE5
S11305B0FF91EF91BF91AF919F918F917F916F9137
S11305C05F914F913F912F910F900FBE0F901F900D
S11305D018951F920F920FB60F9211240F900FBE11
S10D05E00F901F901895F894FFCFB8
S11305EA01014F4E20004F46460054525545200003
S10905FA46414C5345008C
S9030000FC
